{
    "_format": "hh-sol-artifact-1",
    "contractName": "SimpleBank",
    "sourceName": "contracts/Banking.sol",
    "abi": [
        {
            "inputs": [],
            "name": "checkBalance",
            "outputs": [
                {
                    "internalType": "uint256",
                    "name": "",
                    "type": "uint256"
                }
            ],
            "stateMutability": "view",
            "type": "function"
        },
        {
            "inputs": [],
            "name": "deposit",
            "outputs": [],
            "stateMutability": "payable",
            "type": "function"
        },
        {
            "inputs": [
                {
                    "internalType": "uint256",
                    "name": "_amount",
                    "type": "uint256"
                }
            ],
            "name": "withdraw",
            "outputs": [],
            "stateMutability": "nonpayable",
            "type": "function"
        }
    ],
    "bytecode": "0x6080604052348015600f57600080fd5b506105058061001f6000396000f3fe6080604052600436106100345760003560e01c80632e1a7d4d14610039578063c71daccb14610062578063d0e30db01461008d575b600080fd5b34801561004557600080fd5b50610060600480360381019061005b91906102d2565b610097565b005b34801561006e57600080fd5b506100776101b7565b604051610084919061030e565b60405180910390f35b6100956101fd565b005b6000803373ffffffffffffffffffffffffffffffffffffffff1673ffffffffffffffffffffffffffffffffffffffff16815260200190815260200160002054811115610118576040517f08c379a000000000000000000000000000000000000000000000000000000000815260040161010f90610386565b60405180910390fd5b806000803373ffffffffffffffffffffffffffffffffffffffff1673ffffffffffffffffffffffffffffffffffffffff168152602001908152602001600020600082825461016691906103d5565b925050819055503373ffffffffffffffffffffffffffffffffffffffff166108fc829081150290604051600060405180830381858888f193505050501580156101b3573d6000803e3d6000fd5b5050565b60008060003373ffffffffffffffffffffffffffffffffffffffff1673ffffffffffffffffffffffffffffffffffffffff16815260200190815260200160002054905090565b60003411610240576040517f08c379a00000000000000000000000000000000000000000000000000000000081526004016102379061047b565b60405180910390fd5b346000803373ffffffffffffffffffffffffffffffffffffffff1673ffffffffffffffffffffffffffffffffffffffff168152602001908152602001600020600082825461028e919061049b565b92505081905550565b600080fd5b6000819050919050565b6102af8161029c565b81146102ba57600080fd5b50565b6000813590506102cc816102a6565b92915050565b6000602082840312156102e8576102e7610297565b5b60006102f6848285016102bd565b91505092915050565b6103088161029c565b82525050565b600060208201905061032360008301846102ff565b92915050565b600082825260208201905092915050565b7f496e73756666696369656e742062616c616e6365000000000000000000000000600082015250565b6000610370601483610329565b915061037b8261033a565b602082019050919050565b6000602082019050818103600083015261039f81610363565b9050919050565b7f4e487b7100000000000000000000000000000000000000000000000000000000600052601160045260246000fd5b60006103e08261029c565b91506103eb8361029c565b9250828203905081811115610403576104026103a6565b5b92915050565b7f4465706f73697420616d6f756e74206d7573742062652067726561746572207460008201527f68616e207a65726f000000000000000000000000000000000000000000000000602082015250565b6000610465602883610329565b915061047082610409565b604082019050919050565b6000602082019050818103600083015261049481610458565b9050919050565b60006104a68261029c565b91506104b18361029c565b92508282019050808211156104c9576104c86103a6565b5b9291505056fea2646970667358221220362a3fef42db2ad490e3b62f6a2b64ca7094e099f63b70f90d610a8fd119368664736f6c634300081c0033",
    "linkReferences": {},
    "deployedLinkReferences": {}
}